:100000000C9464000C948C000C948C000C948C0068
:100010000C948C000C948C000C948C000C948C0030
:100020000C948C000C948C000C948C000C94750235
:100030000C948C000C948C000C948C000C948C0010
:100040000C9437030C948C000C94A6040C94F404C8
:100050000C948C000C948C000C948C000C948C00F0
:100060000C948C000C948C000000000024002700ED
:100070002A0000000000250028002B0000000000DE
:1000800023002600290004040404040404040202DA
:100090000202020203030303030301020408102007
:1000A0004080010204081020010204081020000012
:1000B0000007000201000003040600000000000029
:1000C00000009D026006960211241FBECFEFD8E00B
:1000D000DEBFCDBF11E0A0E0B1E0E8ECFFE002C080
:1000E00005900D92A032B107D9F711E0A0E2B1E07E
:1000F00001C01D92A43EB107E1F710E0C6ECD0E0CC
:1001000004C02297FE010E949C07C23CD107C9F798
:100110000E9469070C94D7070C940000CF93DF93DB
:10012000BC018230910510F462E070E0A091E20120
:10013000B091E301ED01E0E0F0E040E050E021C0EB
:10014000888199818617970769F48A819B81309706
:1001500019F09383828304C09093E3018093E201BA
:10016000FE0134C06817790738F44115510519F0BC
:100170008417950708F4AC01FE018A819B819C01DC
:10018000E9012097E9F641155105A9F1CA01861B3D
:10019000970B049708F4BA01E0E0F0E02AC08D91D3
:1001A0009C91119784179507F9F46417750781F4EA
:1001B00012968D919C911397309719F093838283B7
:1001C00004C09093E3018093E201FD0132964CC09C
:1001D000CA01861B970BFD01E80FF91F619371930C
:1001E00002978D939C9340C0FD01828193819C0175
:1001F000D9011097A1F68091E0019091E101892B3E
:1002000041F480910301909104019093E101809366
:10021000E00140910501509106014115510541F45D
:100220004DB75EB78091010190910201481B590BB7
:100230002091E0013091E101CA01821B930B8617E6
:10024000970780F0AB014E5F5F4F8417950750F022
:10025000420F531F5093E1014093E001F901619374
:10026000719302C0E0E0F0E0CF01DF91CF910895FB
:10027000CF93DF93009709F450C0EC0122971B82C3
:100280001A82A091E201B091E301109709F140E0D8
:1002900050E0AC17BD0708F1BB83AA83FE01219192
:1002A0003191E20FF31FAE17BF0779F48D919C9146
:1002B0001197280F391F2E5F3F4F398328831296DD
:1002C0008D919C9113979B838A834115510571F4FD
:1002D000D093E301C093E20120C012968D919C91CE
:1002E0001397AD01009711F0DC01D3CFFA01D3834E
:1002F000C28321913191E20FF31FCE17DF0769F41A
:1003000088819981280F391F2E5F3F4FFA01318371
:1003100020838A819B8193838283DF91CF9108958B
:10032000A0E0B0E0E6E9F1E00C94A2076C010097D0
:1003300029F4CB010E948E006C01C1C08EEF882E83
:100340008FEF982E8C0C9D1C8601060F171F081529
:10035000190508F4B2C0F401A081B181A617B7074E
:10036000B8F0A530B10508F4AAC0CD0104978617EE
:10037000970708F4A4C01297A61BB70BF801A19326
:10038000B193D4016D937C93CF010E94380197C043
:100390007B01EA1AFB0AEEEFFFEFEE0EFF1E3601BD
:1003A0006A0E7B1EC091E201D091E30144245524E2
:1003B000AA24BB244AC0C615D705E1F54881598156
:1003C0004E155F05B8F1CA0104978E159F05B0F46C
:1003D0001296A40FB51FF401B183A0832A813B813B
:1003E0004114510431F0D20113963C932E9312978D
:1003F00066C03093E3012093E20161C08A819B8152
:10040000F80193838283425050404E195F09518313
:1004100040834114510431F0D20113961C930E9382
:10042000129704C01093E3010093E201F401718379
:10043000608345C088819981A816B90608F45C01DB
:100440002E018A819B819C01E901209709F0B3CF9D
:100450008091E0019091E10186159705E9F4A616D7
:10046000B706D0F420910501309106012115310520
:1004700041F42DB73EB78091010190910201281BF4
:10048000390B02171307C8F41093E1010093E00140
:10049000D4016D937C9313C0CB010E948E00EC01BC
:1004A000009759F0F40140815181B6010E94650224
:1004B000C6010E9438016E0102C0CC24DD24C601B1
:1004C000CDB7DEB7E0E10C94BE07FB01DC0102C052
:1004D00001900D9241505040D8F70895FB01DC0186
:1004E00001900D920020E1F708951F920F920FB630
:1004F0000F9211240F900FBE0F901F90189581300E
:10050000910551F46F5F7F4F81F486E291E060E0E6
:1005100071E00E9449070895892B39F46F5F7F4F7E
:1005200021F486E291E00E946307089580E090E064
:100530006FEF7FEF0E947F02089581E090E06FEF00
:100540007FEF0E947F02089580912001803F19F083
:10055000813F09F50CC080912101813F41F48EEB70
:1005600091E067E071E044E050E00E94B6068091BF
:100570002101813F81F48091220190912301A0917A
:100580002401B091250180930B0190930C01A0935D
:100590000D01B0930E010895CF93DF93C0E0D0E03A
:1005A0008EEB91E00E94B6051816190624F0FE01A4
:1005B000E05EFE4F0FC0C630D10579F08EEB91E0C2
:1005C0000E94E705FE01E05EFE4F80832196E8CFA2
:1005D00011922196C630D105DCF30E94A402DF916E
:1005E000CF910895F894789468EE73E080E090E0FD
:1005F0000E947F030895F8948CE061E00E94520409
:100600008BE061E00E9452048CE061E00E941304E0
:100610008BE061E00E941304F89410928000E1E8FE
:10062000F0E01082109285001092840084E294EF32
:100630009093890080938800808188608083808186
:1006400084608083EFE6F0E080818260808378942C
:1006500068EE73E080E090E00E947F038EEB91E013
:1006600040E855E260E070E00E942F0508951F9277
:100670000F920FB60F9211242F933F938F939F9356
:10068000AF93BF938091310190913201A0913301DA
:10069000B0913401309135010196A11DB11D232F78
:1006A0002D5F2D3720F02D570196A11DB11D2093F0
:1006B00035018093310190933201A0933301B093BF
:1006C000340180912D0190912E01A0912F01B091C4
:1006D00030010196A11DB11D80932D0190932E0133
:1006E000A0932F01B0933001BF91AF919F918F9153
:1006F0003F912F910F900FBE0F901F9018959B0167
:10070000AC017FB7F89480912D0190912E01A091BA
:100710002F01B091300166B5A89B05C06F3F19F05D
:100720000196A11DB11D7FBFBA2FA92F982F882731
:10073000860F911DA11DB11D62E0880F991FAA1F90
:10074000BB1F6A95D1F7BC012DC0FFB7F89480910B
:100750002D0190912E01A0912F01B0913001E6B5AD
:10076000A89B05C0EF3F19F00196A11DB11DFFBF69
:10077000BA2FA92F982F88278E0F911DA11DB11D6B
:10078000E2E0880F991FAA1FBB1FEA95D1F7861BCD
:10079000970B885E9340C8F2215030404040504053
:1007A00068517C4F211531054105510571F60895B9
:1007B000789484B5826084BD84B5816084BD85B53C
:1007C000826085BD85B5816085BDEEE6F0E0808103
:1007D00081608083E1E8F0E0108280818260808324
:1007E000808181608083E0E8F0E0808181608083A7
:1007F000E1EBF0E0808184608083E0EBF0E08081D9
:1008000081608083EAE7F0E080818460808380817A
:100810008260808380818160808380818068808322
:100820001092C1000895CF93DF93482F50E0CA0182
:1008300086569F4FFC0134914A575F4FFA018491CD
:10084000882369F190E0880F991FFC01E859FF4F58
:10085000A591B491FC01EE58FF4FC591D491662348
:1008600051F42FB7F8948C91932F909589238C9302
:10087000888189230BC0623061F42FB7F8948C9182
:10088000932F909589238C938881832B88832FBF06
:1008900006C09FB7F8948C91832B8C939FBFDF91F8
:1008A000CF910895482F50E0CA0182559F4FFC0117
:1008B0002491CA0186569F4FFC0194914A575F4F7D
:1008C000FA013491332309F440C0222351F123303B
:1008D00071F0243028F42130A1F0223011F514C039
:1008E0002630B1F02730C1F02430D9F404C0809113
:1008F00080008F7703C0809180008F7D809380007F
:1009000010C084B58F7702C084B58F7D84BD09C0C7
:100910008091B0008F7703C08091B0008F7D80936D
:10092000B000E32FF0E0EE0FFF1FEE58FF4FA59150
:10093000B4912FB7F894662321F48C919095892374
:1009400002C08C91892B8C932FBF08951F920F9218
:100950000FB60F9211242F933F934F938F939F9332
:10096000EF93FF938091C00082FD1DC04091C600AF
:1009700020917601309177012F5F3F4F2F733070B8
:1009800080917801909179012817390771F0E091F1
:100990007601F0917701EA5CFE4F40833093770156
:1009A0002093760102C08091C600FF91EF919F9144
:1009B0008F914F913F912F910F900FBE0F901F90ED
:1009C0001895E091CA01F091CB01E05CFF4F819155
:1009D000919120813181821B930B8F739070892BB1
:1009E00011F00E94CC0208951F920F920FB60F9241
:1009F00011242F933F938F939F93EF93FF93209115
:100A0000BA013091BB018091BC019091BD012817C2
:100A1000390731F48091C1008F7D8093C10014C0EB
:100A2000E091BC01F091BD01E658FE4F208180911C
:100A3000BC019091BD0101968F7390709093BD01A0
:100A40008093BC012093C600FF91EF919F918F91FD
:100A50003F912F910F900FBE0F901F901895AF925E
:100A6000BF92DF92EF92FF920F931F93CF93DF938A
:100A7000EC017A018B01DD24403081EE580780E0E3
:100A8000680780E0780711F0DD24D39491E0A92E67
:100A9000B12CEC89FD89DD2069F0C50108A002C0F8
:100AA000880F991F0A94E2F7808360E079E08DE374
:100AB00090E005C0108260E874E88EE190E0A80143
:100AC00097010E9478072150304040405040569591
:100AD00047953795279580E12030380720F0DD20B5
:100AE00011F0DD24D6CFE889F9893083EA89FB89C2
:100AF000208319A2EE89FF89408121E030E0C901FD
:100B00000C8C02C0880F991F0A94E2F7482B40838F
:100B1000EE89FF894081C9010D8C02C0880F991FA1
:100B20000A94E2F7482B4083EE89FF894081C9018E
:100B30000E8C02C0880F991F0A94E2F7482B40835D
:100B4000EE89FF8980810F8C02C0220F331F0A9427
:100B5000E2F7209528232083DF91CF911F910F91F9
:100B6000FF90EF90DF90BF90AF900895DC011C964E
:100B7000ED91FC911D97E05CFF4F219131918081B7
:100B80009181281B390B2F733070C9010895DC0146
:100B90001C96ED91FC911D97E05CFF4F2081318107
:100BA000E054F040DF01AE5BBF4F8D919C911197F7
:100BB0002817390719F42FEF3FEF07C08D919C914B
:100BC000E80FF91F8081282F30E0C9010895DC016A
:100BD0001C96ED91FC911D97E05CFF4F20813181C7
:100BE000E054F040DF01AE5BBF4F8D919C911197B7
:100BF0002817390719F42FEF3FEF10C08D919C9102
:100C00001197E80FF91F20818D919C911197019602
:100C10008F73907011969C938E9330E0C901089564
:100C2000DC0191968C919197882339F05496ED913F
:100C3000FC915597808186FFF9CF91961C9208957B
:100C4000CF93DF93EC01EE85FF85E05CFF4F2081C1
:100C50003181E054F0402F5F3F4F2F733070DF0140
:100C6000AE5BBF4F8D919C91119728173907D1F337
:100C7000E05CFF4F80819181E054F040E80FF91F64
:100C80006083EE85FF85E05CFF4F31832083EE8932
:100C9000FF89208181E090E00F8C02C0880F991FAE
:100CA0000A94E2F7282B208381E089A3EC89FD894F
:100CB00080818064808381E090E0DF91CF9108950E
:100CC0001092C1011092C00188EE93E0A0E0B0E064
:100CD0008093C2019093C301A093C401B093C50156
:100CE00083E191E09093BF018093BE0186E391E0A0
:100CF0009093CB018093CA018AE791E09093CD0154
:100D00008093CC0185EC90E09093CF018093CE014D
:100D100084EC90E09093D1018093D00180EC90E03E
:100D20009093D3018093D20181EC90E09093D50110
:100D30008093D40182EC90E09093D7018093D60108
:100D400086EC90E09093D9018093D80184E0809361
:100D5000DA0183E08093DB0187E08093DC0185E0AA
:100D60008093DD0181E08093DE010895CF92DF92D0
:100D7000EF92FF920F931F93CF93DF937C016B0150
:100D80008A01C0E0D0E00FC0D6016D916D01D7019E
:100D9000ED91FC910190F081E02DC7010995C80FFC
:100DA000D91F015010400115110571F7CE01DF91D7
:100DB000CF911F910F91FF90EF90DF90CF9008950A
:100DC0000F931F93CF93DF93EC018B016F5F7F4FE6
:100DD000888199810E949001009711F480E005C0FC
:100DE000998388831B830A8381E0DF91CF911F91D0
:100DF0000F910895CF93DF93EC0188819981892B1E
:100E000029F08A819B818617970760F4CE010E94A2
:100E1000E006882341F08C819D81892B19F4E881BB
:100E2000F981108281E0DF91CF910895CF93DF9314
:100E3000EC0188819981009711F00E943801198294
:100E400018821D821C821B821A82DF91CF91089525
:100E5000EF92FF920F931F93CF93DF93EC017B01EF
:100E60008A01BA010E94FA06882321F4CE010E9469
:100E7000160707C01D830C8388819981B7010E94E2
:100E80006E02CE01DF91CF911F910F91FF90EF90F5
:100E90000895CF93DF93EC01198218821B821A8286
:100EA0001D821C821E826115710551F0DB010D90BF
:100EB0000020E9F71197A61BB70BAD010E94280788
:100EC000DF91CF910895FC01808191810E943801CA
:100ED0000895CF93DF930E94D8030E94FB02C1EED6
:100EE000D4E00E94F2022097E1F30E94E104F9CFDE
:100EF000A1E21A2EAA1BBB1BFD010DC0AA1FBB1F1E
:100F0000EE1FFF1FA217B307E407F50720F0A21B8F
:100F1000B30BE40BF50B661F771F881F991F1A94FC
:100F200069F760957095809590959B01AC01BD0126
:100F3000CF010895EE0FFF1F0590F491E02D099465
:100F40002F923F924F925F926F927F928F929F92D9
:100F5000AF92BF92CF92DF92EF92FF920F931F93C7
:100F6000CF93DF93CDB7DEB7CA1BDB0B0FB6F89478
:100F7000DEBF0FBECDBF09942A88398848885F84B8
:100F80006E847D848C849B84AA84B984C884DF8029
:100F9000EE80FD800C811B81AA81B981CE0FD11D0D
:100FA0000FB6F894DEBF0FBECDBFED01089510E07F
:100FB000C6ECD0E004C0FE010E949C072296C83C0B
:080FC000D107C9F7F894FFCF37
:100FC800002000E40100008FC879C461B229420002
:100FD8000000002006B606B605E705C7051006009E
:00000001FF
